{"contracts/Verifier.sol":{"Verifier":{"abi":[{"anonymous":false,"inputs":[{"indexed":false,"internalType":"uint256[]","name":"publicInputs","type":"uint256[]"},{"indexed":false,"internalType":"bool","name":"result","type":"bool"}],"name":"ProofVerified","type":"event"},{"inputs":[],"name":"getVersion","outputs":[{"internalType":"string","name":"","type":"string"}],"stateMutability":"pure","type":"function"},{"inputs":[{"internalType":"uint256[8]","name":"proof","type":"uint256[8]"},{"internalType":"uint256[]","name":"publicInputs","type":"uint256[]"}],"name":"verifyProof","outputs":[{"internalType":"bool","name":"","type":"bool"}],"stateMutability":"nonpayable","type":"function"}],"evm":{"bytecode":{"linkReferences":{},"object":"608060405234801561001057600080fd5b50610344806100206000396000f3fe608060405234801561001057600080fd5b50600436106100365760003560e01c80630d8e6e2c1461003b5780635067e82614610059575b600080fd5b61004361007c565b6040516100509190610179565b60405180910390f35b61006c6100673660046101c7565b61009c565b6040519015158152602001610050565b60606040518060600160405280603f81526020016102d0603f9139905090565b60006100ac565b60405180910390fd5b816100f25760405162461bcd60e51b8152602060048201526016602482015275141d589b1a58c81a5b9c1d5d1cc81c995c5d5a5c995960521b60448201526064016100a3565b60008383610101600182610254565b8181106101105761011061027b565b90506020020135905060008082118015610133575069d3c21bcecceda100000082105b90507fdae1c7a71b150dfe838295eeb3a947ea0c3c2916daf7290841c6c3220caa727f85858360405161016893929190610291565b60405180910390a195945050505050565b600060208083528351808285015260005b818110156101a65785810183015185820160400152820161018a565b506000604082860101526040601f19601f8301168501019250505092915050565b600080600061012084860312156101dd57600080fd5b6101008401858111156101ef57600080fd5b8493503567ffffffffffffffff8082111561020957600080fd5b818601915086601f83011261021d57600080fd5b81358181111561022c57600080fd5b8760208260051b850101111561024157600080fd5b6020830194508093505050509250925092565b8181038181111561027557634e487b7160e01b600052601160045260246000fd5b92915050565b634e487b7160e01b600052603260045260246000fd5b6040808252810183905260006001600160fb1b038411156102b157600080fd5b8360051b80866060850137921515602083015250016060019291505056fe4d6f636b2056657269666965722076312e302e30202d205265706c6163652077697468204d69646e696768742d67656e657261746564207665726966696572a26469706673582212204611fb8267a0e7acecef75d0ad535a0e5078c8c1934a49c8395d72e4f2a6859664736f6c63430008130033","opcodes":"PUSH1 0x80 PUSH1 0x40 MSTORE CALLVALUE DUP1 ISZERO PUSH2 0x10 JUMPI PUSH1 0x0 DUP1 REVERT JUMPDEST POP PUSH2 0x344 DUP1 PUSH2 0x20 PUSH1 0x0 CODECOPY PUSH1 0x0 RETURN INVALID PUSH1 0x80 PUSH1 0x40 MSTORE CALLVALUE DUP1 ISZERO PUSH2 0x10 JUMPI PUSH1 0x0 DUP1 REVERT JUMPDEST POP PUSH1 0x4 CALLDATASIZE LT PUSH2 0x36 JUMPI PUSH1 0x0 CALLDATALOAD PUSH1 0xE0 SHR DUP1 PUSH4 0xD8E6E2C EQ PUSH2 0x3B JUMPI DUP1 PUSH4 0x5067E826 EQ PUSH2 0x59 JUMPI JUMPDEST PUSH1 0x0 DUP1 REVERT JUMPDEST PUSH2 0x43 PUSH2 0x7C JUMP JUMPDEST PUSH1 0x40 MLOAD PUSH2 0x50 SWAP2 SWAP1 PUSH2 0x179 JUMP JUMPDEST PUSH1 0x40 MLOAD DUP1 SWAP2 SUB SWAP1 RETURN JUMPDEST PUSH2 0x6C PUSH2 0x67 CALLDATASIZE PUSH1 0x4 PUSH2 0x1C7 JUMP JUMPDEST PUSH2 0x9C JUMP JUMPDEST PUSH1 0x40 MLOAD SWAP1 ISZERO ISZERO DUP2 MSTORE PUSH1 0x20 ADD PUSH2 0x50 JUMP JUMPDEST PUSH1 0x60 PUSH1 0x40 MLOAD DUP1 PUSH1 0x60 ADD PUSH1 0x40 MSTORE DUP1 PUSH1 0x3F DUP2 MSTORE PUSH1 0x20 ADD PUSH2 0x2D0 PUSH1 0x3F SWAP2 CODECOPY SWAP1 POP SWAP1 JUMP JUMPDEST PUSH1 0x0 PUSH2 0xAC JUMP JUMPDEST PUSH1 0x40 MLOAD DUP1 SWAP2 SUB SWAP1 REVERT JUMPDEST DUP2 PUSH2 0xF2 JUMPI PUSH1 0x40 MLOAD PUSH3 0x461BCD PUSH1 0xE5 SHL DUP2 MSTORE PUSH1 0x20 PUSH1 0x4 DUP3 ADD MSTORE PUSH1 0x16 PUSH1 0x24 DUP3 ADD MSTORE PUSH22 0x141D589B1A58C81A5B9C1D5D1CC81C995C5D5A5C9959 PUSH1 0x52 SHL PUSH1 0x44 DUP3 ADD MSTORE PUSH1 0x64 ADD PUSH2 0xA3 JUMP JUMPDEST PUSH1 0x0 DUP4 DUP4 PUSH2 0x101 PUSH1 0x1 DUP3 PUSH2 0x254 JUMP JUMPDEST DUP2 DUP2 LT PUSH2 0x110 JUMPI PUSH2 0x110 PUSH2 0x27B JUMP JUMPDEST SWAP1 POP PUSH1 0x20 MUL ADD CALLDATALOAD SWAP1 POP PUSH1 0x0 DUP1 DUP3 GT DUP1 ISZERO PUSH2 0x133 JUMPI POP PUSH10 0xD3C21BCECCEDA1000000 DUP3 LT JUMPDEST SWAP1 POP PUSH32 0xDAE1C7A71B150DFE838295EEB3A947EA0C3C2916DAF7290841C6C3220CAA727F DUP6 DUP6 DUP4 PUSH1 0x40 MLOAD PUSH2 0x168 SWAP4 SWAP3 SWAP2 SWAP1 PUSH2 0x291 JUMP JUMPDEST PUSH1 0x40 MLOAD DUP1 SWAP2 SUB SWAP1 LOG1 SWAP6 SWAP5 POP POP POP POP POP JUMP JUMPDEST PUSH1 0x0 PUSH1 0x20 DUP1 DUP4 MSTORE DUP4 MLOAD DUP1 DUP3 DUP6 ADD MSTORE PUSH1 0x0 JUMPDEST DUP2 DUP2 LT ISZERO PUSH2 0x1A6 JUMPI DUP6 DUP2 ADD DUP4 ADD MLOAD DUP6 DUP3 ADD PUSH1 0x40 ADD MSTORE DUP3 ADD PUSH2 0x18A JUMP JUMPDEST POP PUSH1 0x0 PUSH1 0x40 DUP3 DUP7 ADD ADD MSTORE PUSH1 0x40 PUSH1 0x1F NOT PUSH1 0x1F DUP4 ADD AND DUP6 ADD ADD SWAP3 POP POP POP SWAP3 SWAP2 POP POP JUMP JUMPDEST PUSH1 0x0 DUP1 PUSH1 0x0 PUSH2 0x120 DUP5 DUP7 SUB SLT ISZERO PUSH2 0x1DD JUMPI PUSH1 0x0 DUP1 REVERT JUMPDEST PUSH2 0x100 DUP5 ADD DUP6 DUP2 GT ISZERO PUSH2 0x1EF JUMPI PUSH1 0x0 DUP1 REVERT JUMPDEST DUP5 SWAP4 POP CALLDATALOAD PUSH8 0xFFFFFFFFFFFFFFFF DUP1 DUP3 GT ISZERO PUSH2 0x209 JUMPI PUSH1 0x0 DUP1 REVERT JUMPDEST DUP2 DUP7 ADD SWAP2 POP DUP7 PUSH1 0x1F DUP4 ADD SLT PUSH2 0x21D JUMPI PUSH1 0x0 DUP1 REVERT JUMPDEST DUP2 CALLDATALOAD DUP2 DUP2 GT ISZERO PUSH2 0x22C JUMPI PUSH1 0x0 DUP1 REVERT JUMPDEST DUP8 PUSH1 0x20 DUP3 PUSH1 0x5 SHL DUP6 ADD ADD GT ISZERO PUSH2 0x241 JUMPI PUSH1 0x0 DUP1 REVERT JUMPDEST PUSH1 0x20 DUP4 ADD SWAP5 POP DUP1 SWAP4 POP POP POP POP SWAP3 POP SWAP3 POP SWAP3 JUMP JUMPDEST DUP2 DUP2 SUB DUP2 DUP2 GT ISZERO PUSH2 0x275 JUMPI PUSH4 0x4E487B71 PUSH1 0xE0 SHL PUSH1 0x0 MSTORE PUSH1 0x11 PUSH1 0x4 MSTORE PUSH1 0x24 PUSH1 0x0 REVERT JUMPDEST SWAP3 SWAP2 POP POP JUMP JUMPDEST PUSH4 0x4E487B71 PUSH1 0xE0 SHL PUSH1 0x0 MSTORE PUSH1 0x32 PUSH1 0x4 MSTORE PUSH1 0x24 PUSH1 0x0 REVERT JUMPDEST PUSH1 0x40 DUP1 DUP3 MSTORE DUP2 ADD DUP4 SWAP1 MSTORE PUSH1 0x0 PUSH1 0x1 PUSH1 0x1 PUSH1 0xFB SHL SUB DUP5 GT ISZERO PUSH2 0x2B1 JUMPI PUSH1 0x0 DUP1 REVERT JUMPDEST DUP4 PUSH1 0x5 SHL DUP1 DUP7 PUSH1 0x60 DUP6 ADD CALLDATACOPY SWAP3 ISZERO ISZERO PUSH1 0x20 DUP4 ADD MSTORE POP ADD PUSH1 0x60 ADD SWAP3 SWAP2 POP POP JUMP INVALID 0x4D PUSH16 0x636B2056657269666965722076312E30 0x2E ADDRESS KECCAK256 0x2D KECCAK256 MSTORE PUSH6 0x706C61636520 PUSH24 0x697468204D69646E696768742D67656E6572617465642076 PUSH6 0x726966696572 LOG2 PUSH5 0x6970667358 0x22 SLT KECCAK256 CHAINID GT 0xFB DUP3 PUSH8 0xA0E7ACECEF75D0AD MSTORE8 GAS 0xE POP PUSH25 0xC8C1934A49C8395D72E4F2A6859664736F6C63430008130033 "},"methodIdentifiers":{"getVersion()":"0d8e6e2c","verifyProof(uint256[8],uint256[])":"5067e826"}}}}}