{
  "_format": "hh-sol-artifact-1",
  "contractName": "FundManager",
  "sourceName": "contracts/FundManager.sol",
  "abi": [
    {
      "inputs": [
        {
          "internalType": "address",
          "name": "_verifier",
          "type": "address"
        }
      ],
      "stateMutability": "nonpayable",
      "type": "constructor"
    },
    {
      "anonymous": false,
      "inputs": [
        {
          "indexed": true,
          "internalType": "uint256",
          "name": "eventId",
          "type": "uint256"
        },
        {
          "indexed": false,
          "internalType": "bytes32",
          "name": "commitmentHash",
          "type": "bytes32"
        },
        {
          "indexed": false,
          "internalType": "address",
          "name": "donor",
          "type": "address"
        }
      ],
      "name": "CommitmentMade",
      "type": "event"
    },
    {
      "anonymous": false,
      "inputs": [
        {
          "indexed": true,
          "internalType": "uint256",
          "name": "eventId",
          "type": "uint256"
        }
      ],
      "name": "EventCompleted",
      "type": "event"
    },
    {
      "anonymous": false,
      "inputs": [
        {
          "indexed": true,
          "internalType": "uint256",
          "name": "eventId",
          "type": "uint256"
        },
        {
          "indexed": false,
          "internalType": "string",
          "name": "name",
          "type": "string"
        },
        {
          "indexed": false,
          "internalType": "address",
          "name": "organizer",
          "type": "address"
        }
      ],
      "name": "EventCreated",
      "type": "event"
    },
    {
      "anonymous": false,
      "inputs": [
        {
          "indexed": true,
          "internalType": "uint256",
          "name": "eventId",
          "type": "uint256"
        },
        {
          "indexed": false,
          "internalType": "uint256",
          "name": "milestone",
          "type": "uint256"
        },
        {
          "indexed": false,
          "internalType": "uint256",
          "name": "topKSum",
          "type": "uint256"
        }
      ],
      "name": "MilestoneProven",
      "type": "event"
    },
    {
      "inputs": [
        {
          "internalType": "string",
          "name": "_name",
          "type": "string"
        },
        {
          "internalType": "string",
          "name": "_description",
          "type": "string"
        },
        {
          "internalType": "uint256[]",
          "name": "_milestones",
          "type": "uint256[]"
        }
      ],
      "name": "createEvent",
      "outputs": [
        {
          "internalType": "uint256",
          "name": "",
          "type": "uint256"
        }
      ],
      "stateMutability": "nonpayable",
      "type": "function"
    },
    {
      "inputs": [
        {
          "internalType": "uint256",
          "name": "",
          "type": "uint256"
        },
        {
          "internalType": "uint256",
          "name": "",
          "type": "uint256"
        }
      ],
      "name": "eventCommitments",
      "outputs": [
        {
          "internalType": "bytes32",
          "name": "commitmentHash",
          "type": "bytes32"
        },
        {
          "internalType": "address",
          "name": "donor",
          "type": "address"
        },
        {
          "internalType": "uint256",
          "name": "eventId",
          "type": "uint256"
        },
        {
          "internalType": "uint256",
          "name": "timestamp",
          "type": "uint256"
        },
        {
          "internalType": "bool",
          "name": "isRevealed",
          "type": "bool"
        }
      ],
      "stateMutability": "view",
      "type": "function"
    },
    {
      "inputs": [
        {
          "internalType": "uint256",
          "name": "",
          "type": "uint256"
        }
      ],
      "name": "events",
      "outputs": [
        {
          "internalType": "string",
          "name": "name",
          "type": "string"
        },
        {
          "internalType": "string",
          "name": "description",
          "type": "string"
        },
        {
          "internalType": "address",
          "name": "organizer",
          "type": "address"
        },
        {
          "internalType": "uint256",
          "name": "totalCommitted",
          "type": "uint256"
        },
        {
          "internalType": "uint256",
          "name": "currentMilestone",
          "type": "uint256"
        },
        {
          "internalType": "bool",
          "name": "isActive",
          "type": "bool"
        },
        {
          "internalType": "uint256",
          "name": "createdAt",
          "type": "uint256"
        }
      ],
      "stateMutability": "view",
      "type": "function"
    },
    {
      "inputs": [
        {
          "internalType": "uint256",
          "name": "_eventId",
          "type": "uint256"
        }
      ],
      "name": "getCommitmentCount",
      "outputs": [
        {
          "internalType": "uint256",
          "name": "",
          "type": "uint256"
        }
      ],
      "stateMutability": "view",
      "type": "function"
    },
    {
      "inputs": [
        {
          "internalType": "uint256",
          "name": "_eventId",
          "type": "uint256"
        }
      ],
      "name": "getEvent",
      "outputs": [
        {
          "components": [
            {
              "internalType": "string",
              "name": "name",
              "type": "string"
            },
            {
              "internalType": "string",
              "name": "description",
              "type": "string"
            },
            {
              "internalType": "address",
              "name": "organizer",
              "type": "address"
            },
            {
              "internalType": "uint256[]",
              "name": "milestones",
              "type": "uint256[]"
            },
            {
              "internalType": "uint256",
              "name": "totalCommitted",
              "type": "uint256"
            },
            {
              "internalType": "uint256",
              "name": "currentMilestone",
              "type": "uint256"
            },
            {
              "internalType": "bool",
              "name": "isActive",
              "type": "bool"
            },
            {
              "internalType": "uint256",
              "name": "createdAt",
              "type": "uint256"
            }
          ],
          "internalType": "struct FundManager.Event",
          "name": "",
          "type": "tuple"
        }
      ],
      "stateMutability": "view",
      "type": "function"
    },
    {
      "inputs": [
        {
          "internalType": "uint256",
          "name": "_eventId",
          "type": "uint256"
        }
      ],
      "name": "getEventCommitments",
      "outputs": [
        {
          "components": [
            {
              "internalType": "bytes32",
              "name": "commitmentHash",
              "type": "bytes32"
            },
            {
              "internalType": "address",
              "name": "donor",
              "type": "address"
            },
            {
              "internalType": "uint256",
              "name": "eventId",
              "type": "uint256"
            },
            {
              "internalType": "uint256",
              "name": "timestamp",
              "type": "uint256"
            },
            {
              "internalType": "bool",
              "name": "isRevealed",
              "type": "bool"
            }
          ],
          "internalType": "struct FundManager.Commitment[]",
          "name": "",
          "type": "tuple[]"
        }
      ],
      "stateMutability": "view",
      "type": "function"
    },
    {
      "inputs": [],
      "name": "nextEventId",
      "outputs": [
        {
          "internalType": "uint256",
          "name": "",
          "type": "uint256"
        }
      ],
      "stateMutability": "view",
      "type": "function"
    },
    {
      "inputs": [
        {
          "internalType": "uint256",
          "name": "_eventId",
          "type": "uint256"
        }
      ],
      "name": "pauseEvent",
      "outputs": [],
      "stateMutability": "nonpayable",
      "type": "function"
    },
    {
      "inputs": [
        {
          "internalType": "uint256",
          "name": "_eventId",
          "type": "uint256"
        },
        {
          "internalType": "bytes32",
          "name": "_commitmentHash",
          "type": "bytes32"
        }
      ],
      "name": "submitCommitment",
      "outputs": [],
      "stateMutability": "nonpayable",
      "type": "function"
    },
    {
      "inputs": [
        {
          "internalType": "bytes32",
          "name": "",
          "type": "bytes32"
        }
      ],
      "name": "usedCommitments",
      "outputs": [
        {
          "internalType": "bool",
          "name": "",
          "type": "bool"
        }
      ],
      "stateMutability": "view",
      "type": "function"
    },
    {
      "inputs": [],
      "name": "verifier",
      "outputs": [
        {
          "internalType": "contract Verifier",
          "name": "",
          "type": "address"
        }
      ],
      "stateMutability": "view",
      "type": "function"
    },
    {
      "inputs": [
        {
          "internalType": "uint256",
          "name": "_eventId",
          "type": "uint256"
        },
        {
          "internalType": "uint256",
          "name": "_milestoneIndex",
          "type": "uint256"
        },
        {
          "internalType": "uint256[8]",
          "name": "_proof",
          "type": "uint256[8]"
        },
        {
          "internalType": "uint256[]",
          "name": "_publicInputs",
          "type": "uint256[]"
        }
      ],
      "name": "verifyMilestone",
      "outputs": [],
      "stateMutability": "nonpayable",
      "type": "function"
    }
  ],
  "bytecode": "0x60a060405234801561001057600080fd5b5060405161183938038061183983398101604081905261002f91610045565b6001600160a01b03166080526001600355610075565b60006020828403121561005757600080fd5b81516001600160a01b038116811461006e57600080fd5b9392505050565b6080516117a261009760003960008181610102015261085701526117a26000f3fe608060405234801561001057600080fd5b50600436106100b45760003560e01c80639f9d903a116100715780639f9d903a146101a2578063d06cccf4146101b9578063d30d4673146101fe578063d8b977eb1461021e578063e6a3d9dc14610231578063e950eb951461024457600080fd5b80630b791430146100b95780630b871eba146100e85780632b7ac3f3146100fd5780636d1884e01461013c57806377e2250f1461015c578063914020391461016f575b600080fd5b6100cc6100c7366004611077565b610257565b6040516100df97969594939291906110d6565b60405180910390f35b6100fb6100f6366004611077565b6103b0565b005b6101247f000000000000000000000000000000000000000000000000000000000000000081565b6040516001600160a01b0390911681526020016100df565b61014f61014a366004611077565b61045e565b6040516100df919061116c565b6100fb61016a366004611221565b6106ab565b61019261017d366004611077565b60026020526000908152604090205460ff1681565b60405190151581526020016100df565b6101ab60035481565b6040519081526020016100df565b6101cc6101c73660046112bf565b610a75565b604080519586526001600160a01b0390941660208601529284019190915260608301521515608082015260a0016100df565b61021161020c366004611077565b610ad0565b6040516100df91906112e1565b6101ab61022c366004611077565b610b93565b6100fb61023f3660046112bf565b610bc9565b6101ab610252366004611411565b610d8e565b600060208190529081526040902080548190610272906114fe565b80601f016020809104026020016040519081016040528092919081815260200182805461029e906114fe565b80156102eb5780601f106102c0576101008083540402835291602001916102eb565b820191906000526020600020905b8154815290600101906020018083116102ce57829003601f168201915b505050505090806001018054610300906114fe565b80601f016020809104026020016040519081016040528092919081815260200182805461032c906114fe565b80156103795780601f1061034e57610100808354040283529160200191610379565b820191906000526020600020905b81548152906001019060200180831161035c57829003601f168201915b50505050600283015460048401546005850154600686015460079096015494956001600160a01b03909316949193509160ff169087565b60035481106103da5760405162461bcd60e51b81526004016103d190611538565b60405180910390fd5b6000818152602081905260409020600201546001600160a01b031633146104435760405162461bcd60e51b815260206004820152601860248201527f4f6e6c79206f7267616e697a65722063616e207061757365000000000000000060448201526064016103d1565b6000908152602081905260409020600601805460ff19169055565b6104b1604051806101000160405280606081526020016060815260200160006001600160a01b03168152602001606081526020016000815260200160008152602001600015158152602001600081525090565b60035482106104d25760405162461bcd60e51b81526004016103d190611538565b60008281526020819052604090819020815161010081019092528054829082906104fb906114fe565b80601f0160208091040260200160405190810160405280929190818152602001828054610527906114fe565b80156105745780601f1061054957610100808354040283529160200191610574565b820191906000526020600020905b81548152906001019060200180831161055757829003601f168201915b5050505050815260200160018201805461058d906114fe565b80601f01602080910402602001604051908101604052809291908181526020018280546105b9906114fe565b80156106065780601f106105db57610100808354040283529160200191610606565b820191906000526020600020905b8154815290600101906020018083116105e957829003601f168201915b505050918352505060028201546001600160a01b0316602080830191909152600383018054604080518285028101850182528281529401939283018282801561066e57602002820191906000526020600020905b81548152602001906001019080831161065a575b50505091835250506004820154602082015260058201546040820152600682015460ff161515606082015260079091015460809091015292915050565b60035485106106cc5760405162461bcd60e51b81526004016103d190611538565b60008581526020819052604090206006015460ff166107205760405162461bcd60e51b815260206004820152601060248201526f4576656e74206e6f742061637469766560801b60448201526064016103d1565b6000858152602081905260409020600201546001600160a01b031633146107895760405162461bcd60e51b815260206004820152601960248201527f4f6e6c79206f7267616e697a65722063616e207665726966790000000000000060448201526064016103d1565b60008581526020819052604090206003015484106107dd5760405162461bcd60e51b8152602060048201526011602482015270496e76616c6964206d696c6573746f6e6560781b60448201526064016103d1565b600085815260208190526040902060050154841461083d5760405162461bcd60e51b815260206004820152601f60248201527f4d75737420766572696679206d696c6573746f6e657320696e206f726465720060448201526064016103d1565b604051632833f41360e11b81526000906001600160a01b037f00000000000000000000000000000000000000000000000000000000000000001690635067e8269061089090879087908790600401611566565b6020604051808303816000875af11580156108af573d6000803e3d6000fd5b505050506040513d601f19601f820116820180604052508101906108d391906115ac565b9050806109125760405162461bcd60e51b815260206004820152600d60248201526c24b73b30b634b210383937b7b360991b60448201526064016103d1565b6000868152602081905260408120600301805487908110610935576109356115d5565b60009182526020822001549150848461094f600182611601565b81811061095e5761095e6115d5565b905060200201359050818110156109af5760405162461bcd60e51b8152602060048201526015602482015274135a5b195cdd1bdb99481b9bdd081c995858da1959605a1b60448201526064016103d1565b60008881526020819052604081206005018054916109cc8361161a565b9091555050604080518381526020810183905289917f4dccb5b49273416b750555a78accd63b93bbed1778a3b5e5b074ccb700b53cf3910160405180910390a26000888152602081905260409020600381015460059091015410610a6b57600088815260208190526040808220600601805460ff191690555189917fbb85ff95aded757cf3b840cc38e6e719a2915827f28e3364f62cbefa25bbe2de91a25b5050505050505050565b60016020528160005260406000208181548110610a9157600080fd5b6000918252602090912060059091020180546001820154600283015460038401546004909401549295506001600160a01b039091169350919060ff1685565b60606003548210610af35760405162461bcd60e51b81526004016103d190611538565b600082815260016020908152604080832080548251818502810185019093528083529193909284015b82821015610b885760008481526020908190206040805160a08101825260058602909201805483526001808201546001600160a01b031684860152600282015492840192909252600381015460608401526004015460ff16151560808301529083529092019101610b1c565b505050509050919050565b60006003548210610bb65760405162461bcd60e51b81526004016103d190611538565b5060009081526001602052604090205490565b6003548210610bea5760405162461bcd60e51b81526004016103d190611538565b60008281526020819052604090206006015460ff16610c3e5760405162461bcd60e51b815260206004820152601060248201526f4576656e74206e6f742061637469766560801b60448201526064016103d1565b60008181526002602052604090205460ff1615610c9d5760405162461bcd60e51b815260206004820152601760248201527f436f6d6d69746d656e7420616c7265616479207573656400000000000000000060448201526064016103d1565b60008181526002602081815260408084208054600160ff199182168117909255878652818452828620835160a081018552888152338187018181528287018c81524260608501908152608085018c81528654808a018855968d529b8a902094516005909602909401948555905195840180546001600160a01b0319166001600160a01b0390971696909617909555935196820196909655945160038601559451600490940180549095169315159390931790935582518481529081019190915283917fd16b88cf9bd48d0f37850c7f3b10cae995cd9ed2e98061e6220cf91432d26345910160405180910390a25050565b600080845111610dd65760405162461bcd60e51b8152602060048201526013602482015272115d995b9d081b985b59481c995c5d5a5c9959606a1b60448201526064016103d1565b6000825111610e275760405162461bcd60e51b815260206004820152601f60248201527f4174206c65617374206f6e65206d696c6573746f6e652072657175697265640060448201526064016103d1565b60015b8251811015610ed05782610e3f600183611601565b81518110610e4f57610e4f6115d5565b6020026020010151838281518110610e6957610e696115d5565b602002602001015111610ebe5760405162461bcd60e51b815260206004820152601c60248201527f4d696c6573746f6e6573206d75737420626520617363656e64696e670000000060448201526064016103d1565b80610ec88161161a565b915050610e2a565b506003805460009182610ee28361161a565b909155506040805161010081018252878152602080820188905233828401526060820187905260006080830181905260a08301819052600160c08401524260e08401528481529081905291909120815192935090918190610f439082611682565b5060208201516001820190610f589082611682565b5060408201516002820180546001600160a01b0319166001600160a01b0390921691909117905560608201518051610f9a916003840191602090910190611017565b506080820151600482015560a0820151600582015560c082015160068201805460ff191691151591909117905560e09091015160079091015560405181907f40fb05b814a900c99fa0a76d919dfdeaf3389540e4ca70f97ba40ca9a38f3797906110079088903390611742565b60405180910390a2949350505050565b828054828255906000526020600020908101928215611052579160200282015b82811115611052578251825591602001919060010190611037565b5061105e929150611062565b5090565b5b8082111561105e5760008155600101611063565b60006020828403121561108957600080fd5b5035919050565b6000815180845260005b818110156110b65760208185018101518683018201520161109a565b506000602082860101526020601f19601f83011685010191505092915050565b60e0815260006110e960e083018a611090565b82810360208401526110fb818a611090565b6001600160a01b03989098166040840152505060608101949094526080840192909252151560a083015260c09091015292915050565b600081518084526020808501945080840160005b8381101561116157815187529582019590820190600101611145565b509495945050505050565b602081526000825161010080602085015261118b610120850183611090565b91506020850151601f19808685030160408701526111a98483611090565b9350604087015191506111c760608701836001600160a01b03169052565b6060870151915080868503016080870152506111e38382611131565b925050608085015160a085015260a085015160c085015260c085015161120d60e086018215159052565b5060e0949094015192909301919091525090565b6000806000806000610160868803121561123a57600080fd5b853594506020860135935061014086018781111561125757600080fd5b6040870193503567ffffffffffffffff8082111561127457600080fd5b818801915088601f83011261128857600080fd5b81358181111561129757600080fd5b8960208260051b85010111156112ac57600080fd5b9699959850939650602001949392505050565b600080604083850312156112d257600080fd5b50508035926020909101359150565b602080825282518282018190526000919060409081850190868401855b8281101561134d57815180518552868101516001600160a01b03168786015285810151868601526060808201519086015260809081015115159085015260a090930192908501906001016112fe565b5091979650505050505050565b634e487b7160e01b600052604160045260246000fd5b604051601f8201601f1916810167ffffffffffffffff811182821017156113995761139961135a565b604052919050565b600082601f8301126113b257600080fd5b813567ffffffffffffffff8111156113cc576113cc61135a565b6113df601f8201601f1916602001611370565b8181528460208386010111156113f457600080fd5b816020850160208301376000918101602001919091529392505050565b60008060006060848603121561142657600080fd5b833567ffffffffffffffff8082111561143e57600080fd5b61144a878388016113a1565b945060209150818601358181111561146157600080fd5b61146d888289016113a1565b94505060408601358181111561148257600080fd5b8601601f8101881361149357600080fd5b8035828111156114a5576114a561135a565b8060051b92506114b6848401611370565b818152928201840192848101908a8511156114d057600080fd5b928501925b848410156114ee578335825292850192908501906114d5565b8096505050505050509250925092565b600181811c9082168061151257607f821691505b60208210810361153257634e487b7160e01b600052602260045260246000fd5b50919050565b602080825260149082015273115d995b9d08191bd95cc81b9bdd08195e1a5cdd60621b604082015260600190565b600061012061010080878537830181905282018390526101406001600160fb1b0384111561159357600080fd5b8360051b80868386013792909201909101949350505050565b6000602082840312156115be57600080fd5b815180151581146115ce57600080fd5b9392505050565b634e487b7160e01b600052603260045260246000fd5b634e487b7160e01b600052601160045260246000fd5b81810381811115611614576116146115eb565b92915050565b60006001820161162c5761162c6115eb565b5060010190565b601f82111561167d57600081815260208120601f850160051c8101602086101561165a5750805b601f850160051c820191505b8181101561167957828155600101611666565b5050505b505050565b815167ffffffffffffffff81111561169c5761169c61135a565b6116b0816116aa84546114fe565b84611633565b602080601f8311600181146116e557600084156116cd5750858301515b600019600386901b1c1916600185901b178555611679565b600085815260208120601f198616915b82811015611714578886015182559484019460019091019084016116f5565b50858210156117325787850151600019600388901b60f8161c191681555b5050505050600190811b01905550565b6040815260006117556040830185611090565b905060018060a01b0383166020830152939250505056fea2646970667358221220c28c711ce7b149eb7d2c0acda0bb2e592b446b11001402497990682cc053adf964736f6c63430008130033",
  "linkReferences": {},
  "deployedLinkReferences": {}
}