{
  "_format": "hh-sol-artifact-1",
  "contractName": "Verifier",
  "sourceName": "contracts/Verifier.sol",
  "abi": [
    {
      "anonymous": false,
      "inputs": [
        {
          "indexed": false,
          "internalType": "uint256[]",
          "name": "publicInputs",
          "type": "uint256[]"
        },
        {
          "indexed": false,
          "internalType": "bool",
          "name": "result",
          "type": "bool"
        }
      ],
      "name": "ProofVerified",
      "type": "event"
    },
    {
      "inputs": [],
      "name": "getVersion",
      "outputs": [
        {
          "internalType": "string",
          "name": "",
          "type": "string"
        }
      ],
      "stateMutability": "pure",
      "type": "function"
    },
    {
      "inputs": [
        {
          "internalType": "uint256[8]",
          "name": "proof",
          "type": "uint256[8]"
        },
        {
          "internalType": "uint256[]",
          "name": "publicInputs",
          "type": "uint256[]"
        }
      ],
      "name": "verifyProof",
      "outputs": [
        {
          "internalType": "bool",
          "name": "",
          "type": "bool"
        }
      ],
      "stateMutability": "nonpayable",
      "type": "function"
    }
  ],
  "bytecode": "0x608060405234801561001057600080fd5b50610344806100206000396000f3fe608060405234801561001057600080fd5b50600436106100365760003560e01c80630d8e6e2c1461003b5780635067e82614610059575b600080fd5b61004361007c565b6040516100509190610179565b60405180910390f35b61006c6100673660046101c7565b61009c565b6040519015158152602001610050565b60606040518060600160405280603f81526020016102d0603f9139905090565b60006100ac565b60405180910390fd5b816100f25760405162461bcd60e51b8152602060048201526016602482015275141d589b1a58c81a5b9c1d5d1cc81c995c5d5a5c995960521b60448201526064016100a3565b60008383610101600182610254565b8181106101105761011061027b565b90506020020135905060008082118015610133575069d3c21bcecceda100000082105b90507fdae1c7a71b150dfe838295eeb3a947ea0c3c2916daf7290841c6c3220caa727f85858360405161016893929190610291565b60405180910390a195945050505050565b600060208083528351808285015260005b818110156101a65785810183015185820160400152820161018a565b506000604082860101526040601f19601f8301168501019250505092915050565b600080600061012084860312156101dd57600080fd5b6101008401858111156101ef57600080fd5b8493503567ffffffffffffffff8082111561020957600080fd5b818601915086601f83011261021d57600080fd5b81358181111561022c57600080fd5b8760208260051b850101111561024157600080fd5b6020830194508093505050509250925092565b8181038181111561027557634e487b7160e01b600052601160045260246000fd5b92915050565b634e487b7160e01b600052603260045260246000fd5b6040808252810183905260006001600160fb1b038411156102b157600080fd5b8360051b80866060850137921515602083015250016060019291505056fe4d6f636b2056657269666965722076312e302e30202d205265706c6163652077697468204d69646e696768742d67656e657261746564207665726966696572a26469706673582212204611fb8267a0e7acecef75d0ad535a0e5078c8c1934a49c8395d72e4f2a6859664736f6c63430008130033",
  "linkReferences": {},
  "deployedLinkReferences": {}
}